:020000040000FA
:04000000803105281E
:1000080009001821C4209413141394121412941084
:1000180014101411911511159E200130A000E7212C
:100028002A08B5000230A000E7212A08B6000330EC
:100038003502B1008330F5001A30F6003108F900B6
:10004800FA0132237508B3007608B400043033028D
:10005800B1000030343BB2003108F5003208F60038
:100068000530F900FA0132237508A1000330360281
:10007800B1008330F5001A30F6003108F900FA01B2
:1000880032237508B3007608B40004303302B10097
:100098000030343BB2003108F5003208F600053074
:1000A800F900FA0132237508A200A501A4017921FB
:1000B8007930AD008330AE0091212208A600B2212C
:1000C8000130A500A40179218030AD008330AE0055
:1000D80091212108A600B221F430F2000130F3008A
:1000E800B6201028630076282C110F182C159417A9
:1000F8001910991419150230F000F00B812800002E
:10010800AC138F1BAC1719110230F000F00B8A28C2
:10011800000019150230F000F00B90281911023078
:10012800F000F00B95280000AC1B7E2819102C1944
:100138001914080019100130A30033210430F2000B
:10014800F301B6208030A30033218530F000F00B96
:10015800AB2808001930F000F00BB0280000F50BB0
:10016800AE280800F30A0E30F100BD30F000F00BA5
:10017800BB28F10BB928F20BB728F30BB7280800F6
:100188003230F200F301B620941099101412941230
:100198001413941314101411191019119913191315
:1001A800991619160530F000F00BD82819150530E6
:1001B800F000F00BDD2819110A30F200F301B62027
:1001C8000330B00019150530F000F00BE9281911BB
:1001D8000130F200F301B620B00BE6289913191389
:1001E800991619120530F000F00BF828191505308A
:1001F800F000F00BFD2819110130F100F001F00BAF
:100208000329F10B02290930F000F00B09292830E5
:10021800A30033210630A30033210C30A30033217F
:100228009E200C30A8000800603031008D008F013E
:1002380091019201063093002100131193133E009F
:10024800B801C301CE01D901E4013300941390131E
:1002580020008C018D018E018F019001080078200B
:10026800991014129412141394139913A31B991729
:100278001913231B19179912A31A99161912231A5D
:1002880019160230F000F00B47290000191502304A
:10029800F000F00B4D2919119913A3199917191387
:1002A800231919179912A318991619122318191630
:1002B8000230F000F00B5E29000019150230F00042
:1002C800F00B64291911E230F000F00B69290000E5
:1002D8000F18782910302302031878292308073CBF
:1002E800031878292308A800080019102508013CDC
:1002F800031882290230A5021430A4072508F50046
:100308004030F900662324087007B10080303104BA
:10031800A30033210530F500AE282D0884002E08EF
:1003280085000008A900A90803190800191401305C
:10033800AF002F082D07840000302E3D85000008EF
:10034800A30033212F082902B100F500F901062383
:10035800F009701CB129AF0A9D290800A7011914DA
:1003680064302602031CC5292608F5006430F9000C
:100378001E237508A7007008A60030302707A300C1
:1003880033212708F900F50117237008B100260862
:10039800F5000A30F9001723F00931087004B3009A
:1003A800331CE3292608F5000A30F9001E237508D6
:1003B800A7007008A60030302707A300332130308B
:1003C8002607A3003329210013112000200821004B
:1003D8009E002000A008031DF4293E003814E02ADE
:1003E8002003031DFA293E00B814E02A0230200237
:1003F800031D012A3E003815E02A03302002031DA0
:10040800082A3E00B815E02A04302002031D0F2AEE
:100418003E003816E02A05302002031D162A3E0049
:10042800B816E02A06302002031D1D2A3E003817A0
:10043800E02A07302002031D242A3E00B817E02ACC
:1004480008302002031D2B2A3E004314E02A0930FD
:100458002002031D322A3E00C314E02A0A3020027B
:10046800031D392A3E004315E02A0B302002031DE4
:10047800402A3E00C315E02A0C302002031D472AFB
:100488003E004316E02A0D302002031D4E2A3E008E
:10049800C316E02A0E302002031D552A3E004317DA
:1004A800E02A0F302002031D5C2A3E00C317E02A11
:1004B80010302002031D632A3E004E14E02A11303A
:1004C8002002031D6A2A3E00CE14E02A12302002C0
:1004D800031D712A3E004E15E02A13302002031D29
:1004E800782A3E00CE15E02A14302002031D7F2A08
:1004F8003E004E16E02A15302002031D862A3E00D3
:10050800CE16E02A16302002031D8D2A3E004E1713
:10051800E02A17302002031D942A3E00CE17E02A55
:1005280018302002031D9B2A3E005914E02A193076
:100538002002031DA22A3E00D914E02A1A30200204
:10054800031DA92A3E005915E02A1B302002031D6D
:10055800B02A3E00D915E02A1C302002031DB72A14
:100568003E005916E02A1D302002031DBE2A3E0017
:10057800D916E02A1E302002031DC52A3E0059174D
:10058800E02A1F302002031DCC2A3E00D917E02A9A
:1005980020302002031DD32A3E006414E02A2130B3
:1005A8002002031DDA2A3E00E414E02A2230200249
:1005B800031DE02A3E006415210013120130980043
:1005C80013120F3098001311131120002008210076
:1005D8009E0093170230F5002000AE20210013146E
:1005E80000001318F52A93133E00B801C301CE0189
:1005F800D901E40121000D082000AA0021001311EF
:1006080020000800F001750879020319F0090800B4
:10061800F00175087902031D080076087A02031DA7
:100628000800F0090800F001031479087502031C9A
:10063800F0090800F90803190800F0010830F4006F
:100648000310F50DF00D7908F002751403182F2B1F
:1006580075107908F007F40B242B08007508F700CB
:100668007608F8007908FB007A08FC00F201F3012B
:100678007B08F5007C08F600F901FA010C23701CD0
:10068800482BF501F60108001030F4000310F70DAF
:10069800F80DF20DF30D7B08F2027C08F33B77149A
:1006A80003185B2B77107B08F2077C08F33DF40BEB
:1006B8004A2B7708F5007808F6007208F0007308EE
:1006C800F1000800F00175087918F0070310F90C1B
:1006D8000310F50DF908031D672B080078088A0038
:1006E8007708F70A0319F80A820006344C344534AF
:1006F800463454343A3420340734463452344F3470
:080708004E3454343A3420341D
:020000040001F9
:0A000E008C3FFE3F9F3FFF1FFF3FA6
:00000001FF
