:020000040000FA
:04000000803105281E
:100008000900C92075209413141394121412941023
:10001800141014114F20A201A1012A217C30A7003D
:100028008130A80042210130A2000130A1002A211C
:100038008530A7008130A8004221E830F200033063
:10004800F30067200E286300272826110F182615AD
:1000580094171910991419150230F000F00B322872
:100068000000A6138F1BA61719110230F000F00B21
:100078003B28000019150230F000F00B4128191137
:100088000230F000F00B46280000A61B2F2819109C
:1000980026191914080019100130A000E4200430B2
:1000A800F200F30167208030A000E4208530F000E2
:1000B800F00B5C2808001930F000F00B61280000F4
:1000C800F50B5F280800F30A0E30F100BD30F00090
:1000D800F00B6C28F10B6A28F20B6828F30B6828E0
:1000E80008003230F200F3016720941099101412BE
:1000F800941214139413141014111910191199133C
:100108001913991619160530F000F00B89281915DE
:100118000530F000F00B8E2819110A30F200F301B7
:1001280067200330AA0019150530F000F00B9A2853
:1001380019110130F200F3016720AA0B97289913CF
:100148001913991619120530F000F00BA928191582
:100158000530F000F00BAE2819110130F100F00164
:10016800F00BB428F10BB3280930F000F00BBA28D3
:100178002830A000E4200630A000E4200C30A000C5
:10018800E4204F200C30A3000800603031008D00BF
:100198008F019101920106309300210013119313EE
:1001A8003E00B801C301CE01D901E4013300941324
:1001B800901320008C018D018E018F0190010800A1
:1001C8002920991014129412141394139913A01B34
:1001D80099171913201B19179912A01A9916191291
:1001E800201A19160230F000F00BF8280000191533
:1001F8000230F000F00BFE2819119913A019991775
:100208001913201919179912A018991619122018DC
:1002180019160230F000F00B0F29000019150230F2
:10022800F000F00B15291911E230F000F00B1A2933
:1002380000000F1829291030200203182929200846
:10024800073C031829292008A300080019102208D0
:10025800013C031833290230A2021430A1072208F6
:10026800F5004030F900692121087007AB008030A3
:100278002B04A000E4200530F5005F28270884003F
:10028800280885000008A400A40803190800191408
:100298000130A9002908270784000030283D85007F
:1002A8000008A000E42029082402AB00F500F901A9
:1002B8006321F009701C6229A90A4E290800F0017F
:1002C800750879020319F0090800F0017508791812
:1002D800F0070310F90C0310F50DF908031D6A293E
:1002E800080078088A007708F70A0319F80A8200D4
:1002F8000834543445345334543420344F344E3451
:100308004534083454344534533454342034543444
:0403180057344F34D3
:020000040001F9
:0A000E008C3FFE3F9F3FFF1FFF3FA6
:00000001FF
