:020000040000FA
:04000000803105281E
:1000080009003221DE2011149114111591151310D5
:1000180093101311931111129413141394121412B0
:100028009410141014110C1C1C28A301AB211F28B8
:100038000130A300AB218C1C2428A301D72027283A
:100048000130A300D720B1200230A0000E222B08D7
:10005800B6000330A0000E222B08B700033036028A
:10006800B2008330F5001A30F6003208F900FA01C0
:1000780059237508B4007608B50004303402B2007C
:100088000030353BB3003208F5003308F600053080
:10009800F900FA0159237508A10003303702B200AC
:1000A8008330F5001A30F6003208F900FA015923B6
:1000B8007508B4007608B50004303402B200003088
:1000C800353BB3003208F5003308F6000530F90077
:1000D800FA0159237508A200A601A5019321A030B1
:1000E800AE008330AF00B8212208A700D921013023
:1000F800A600A5019321A730AE008330AF00B82138
:100108002108A700D92117288928630089282D11DB
:100118000F182D1594171910991419150230F0009D
:10012800F00B94280000AD138F1BAD171911023086
:10013800F000F00B9D28000019150230F000F00BBC
:10014800A32819110230F000F00BA8280000AD1BFD
:10015800912819102D191914080019100130A4003C
:100168004D210430F200F301C9208030A4004D2154
:100178008530F000F00BBE2808001930F000F00BB5
:10018800C3280000F50BC1280800F30A0E30F1005F
:10019800BD30F000F00BCE28F10BCC28F20BCA28AA
:1001A800F30BCA2808002303031DDC281616DD28D4
:1001B800161208003230F200F301C9209410991089
:1001C80014129412141394131410141119101911F1
:1001D80099131913991619160530F000F00BF22827
:1001E80019150530F000F00BF72819110A30F20044
:1001F800F301C9200330B10019150530F000F00BE8
:10020800032919110130F200F301C920B10B0029AB
:1002180099131913991619120530F000F00B1229C9
:1002280019150530F000F00B172919110130F100EC
:10023800F001F00B1D29F10B1C290930F000F00B1F
:1002480023292830A4004D210630A4004D210C306C
:10025800A4004D21B1200C30A90008006030310005
:100268008D008F0191019201063093002100131136
:1002780093133E00B801C301CE01D901E401330054
:100288009413901320008C018D018E018F01900131
:1002980008008B20991014129412141394139913B4
:1002A800A41B99171913241B19179912A41A991624
:1002B8001912241A19160230F000F00B61290000F7
:1002C80019150230F000F00B672919119913A419B8
:1002D80099171913241919179912A418991619128C
:1002E800241819160230F000F00B782900001915AF
:1002F8000230F000F00B7E291911E230F000F00B0B
:10030800832900000F18922910302402031892291B
:100318002408073C031892292408A900080019108A
:100328002608013C03189C290230A6021430A507B0
:100338002608F5004030F9008D2325087007B20023
:1003480080303204A4004D210530F500C128230374
:10035800031DB3291810981418119815B7291814E3
:1003680098101815981108002E0884002F08850089
:100378000008AA00AA080319080019140130B000DF
:1003880030082E07840000302F3D85000008A400A7
:100398004D2130082A02B200F500F9012D23F00999
:1003A800701CD829B00AC4290800A801191464309F
:1003B8002702031CEC292708F5006430F9004523BF
:1003C8007508A8007008A70030302807A4004D2140
:1003D8002808F900F5013E237008B2002708F50047
:1003E8000A30F9003E23F00932087004B400341CC6
:1003F8000A2A2708F5000A30F90045237508A800DD
:100408007008A70030302807A4004D213030270796
:10041800A4004D29210013112000200821009E006E
:100428002000A008031D1B2A3E003814072B2003B8
:10043800031D212A3E00B814072B02302002031D99
:10044800282A3E003815072B03302002031D2F2AC7
:100458003E00B815072B04302002031D362A3E0043
:100468003816072B05302002031D3D2A3E00B8161A
:10047800072B06302002031D442A3E003817072B9D
:1004880007302002031D4B2A3E00B817072B0830FF
:100498002002031D522A3E004314072B0930200274
:1004A800031D592A3E00C314072B0A302002031DDE
:1004B800602A3E004315072B0B302002031D672AD4
:1004C8003E00C315072B0C302002031D6E2A3E0088
:1004D8004316072B0D302002031D752A3E00C31654
:1004E800072B0E302002031D7C2A3E004317072BE2
:1004F8000F302002031D832A3E00C317072B10303C
:100508002002031D8A2A3E004E14072B11302002B8
:10051800031D912A3E00CE14072B12302002031D22
:10052800982A3E004E15072B13302002031D9F2AE0
:100538003E00CE15072B14302002031DA62A3E00CC
:100548004E16072B15302002031DAD2A3E00CE168D
:10055800072B16302002031DB42A3E004E17072B26
:1005680017302002031DBB2A3E00CE17072B183078
:100578002002031DC22A3E005914072B19302002FD
:10058800031DC92A3E00D914072B1A302002031D67
:10059800D02A3E005915072B1B302002031DD72AED
:1005A8003E00D915072B1C302002031DDE2A3E0011
:1005B8005916072B1D302002031DE52A3E00D916C7
:1005C800072B1E302002031DEC2A3E005917072B6B
:1005D8001F302002031DF32A3E00D917072B2030B5
:1005E8002002031DFA2A3E006414072B2130200242
:1005F800031D012B3E00E414072B22302002031DAB
:10060800072B3E00641521001312013098001312C5
:100618000F309800131113112000200821009E00AC
:1006280093170230F5002000C120210013140000A8
:1006380013181C2B93133E00B801C301CE01D90136
:10064800E40121000D082000AB0021001311200057
:100658000800F001750879020319F0090800F00193
:1006680075087902031D080076087A02031D080040
:10067800F0090800F001031479087502031CF00959
:100688000800F90803190800F0010830F400031005
:10069800F50DF00D7908F00275140318562B751036
:1006A8007908F007F40B4B2B08007508F70076085B
:1006B800F8007908FB007A08FC00F201F3017B08D6
:1006C800F5007C08F600F901FA013323701C6F2B42
:1006D800F501F60108001030F4000310F70DF80DCD
:1006E800F20DF30D7B08F2027C08F33B7714031834
:1006F800822B77107B08F2077C08F33DF40B712BF3
:100708007708F5007808F6007208F0007308F10021
:100718000800F00175087918F0070310F90C0310A8
:10072800F50DF908031D8E2B080078088A00770854
:10073800F70A0319F80A820006344C344534463463
:1007480054343A3420340734463452344F344E3417
:0607580054343A34203451
:020000040001F9
:0A000E008C3FFE3F9F3FFF1FFF3FA6
:00000001FF
